:020000040800F2
:100000000829002081030008B7690008255A000864
:10001000B5690008392B00088D8400080000000035
:10002000000000000000000000000000C102000805
:10003000152C0008000000001D030008597400087A
:100040009B0300089B0300089B0300089B03000818
:100050009B0300089B0300089B0300089B03000808
:100060009B0300089B0300089B0300089B030008F8
:100070009B0300089B0300089B0300089B030008E8
:100080009B030008000000009B0300089B0300087E
:100090009B0300089B0300089B0300089B030008C8
:1000A0009B0300089B0300089B0300089B030008B8
:1000B0009B0300089B0300089B0300089B030008A8
:1000C0009B0300089B0300089B0300089B03000898
:1000D0009B0300089B0300089B0300084D84000855
:1000E0009B0300089B0300089B0300089B03000878
:1000F0009B0300089B0300089B030008000000000E
:10010000000000009B030008000000009B030008A3
:100110009B030008000000009B0300089B030008ED
:100120009B0300089B0300089B0300089B03000837
:100130009B03000800000000000000009B03000873
:100140009B0300089B030008000000000000000063
:10015000000000000000000000000000000000009F
:100160000000000000000000000000009B030008E9
:100170009B030008000000000000000000000000D9
:10018000000000009B0300080000000000000000C9
:10019000000000000000000000000000000000005F
:1001A00000000000000000009B0300089B03000803
:1001B0009B0300089B0300089B030008000000004D
:1001C000000000009B030008000000000000000089
:1001D0009B0300089B03000800F002F800F060F8A1
:1001E0000AA090E8000C82448344AAF10107DA4592
:1001F00001D100F055F8AFF2090EBAE80F0013F084
:10020000010F18BFFB1A43F001031847FCB40000AC
:100210001CB50000103A24BF78C878C1FAD852073C
:1002200024BF30C830C144BF04680C607047000070
:100230000023002400250026103A28BF78C1FBD8EF
:10024000520728BF30C148BF0B60704766290AF0CB
:100250006F86642900F0A281752900F09F817329BF
:1002600000F05586002070471FB50AF05CFE9DE83F
:10027000030001F039FB00F0A5FE0400002000217E
:100280000AF0C4FD401C6060002000210AF0A8FDB7
:10029000E06000F0E7FF1FBD10B501F04CF810BDA5
:1002A00001F0AFF81146FFF7DFFF08F00BFE01F099
:1002B000ADFA03B4FFF7F0FF03BC01F087FC0000C8
:1002C0002C4B19680868B0E8F04F80F30988BFF339
:1002D0006F8F4FF0000080F311887047000000001E
:1002E00008480068006880F308884FF0000080F339
:1002F000148862B661B6BFF34F8FBFF36F8F00DF14
:1003000000BF00BF08ED00E0DFF80C00016841F419
:1003100070010160704700BF88ED00E0EFF30980D5
:10032000BFF36F8F134B1A681EF0100F08BF20ED3C
:10033000108A20E9F04F106009B44FF0500080F3AC
:100340001188BFF34F8FBFF36F8F09F011FE4FF08D
:10035000000080F3118809BC19680868B0E8F04F04
:100360001EF0100F08BFB0EC108A80F30988BFF3AD
:100370006F8F704718000020EFF305807047000072
:100380000948804709480047FEE7FEE7FEE7FEE729
:10039000FEE7FEE7FEE7FEE7FEE7FEE70448054965
:1003A000054A064B70470000E1740008D9010008B7
:1003B0000823002008290020082500200825002007
:1003C00053EA020C00F069802DE9F04B4FF0000673
:1003D000002B1FBFB3FA83F503FA05F424FA05F6E0
:1003E0005E4012BF1643B2FA82F502FA05F4C5F177
:1003F00020051EBF22FA05FC44EA0C04203556EA0B
:10040000044C4FEA144418BF641C4FF000084FF02E
:100410000009904271EB030C39D3002919BFB1FADE
:1004200081F701FA07F6B0FA80F700FA07F6C7F18C
:1004300020071EBF20FA07FC46EA0C062037B6FB51
:10044000F4FCA7EB0507103F07F01F0BCBF12006CC
:100450000CFA0BFB2CFA06F644BFB3460026202FFD
:10046000A4BF5E464FF0000B5BEA060C08BF4FF0DE
:10047000010B19EB0B09ABFB027C48EB0608C01B18
:1004800006FB02CC0BFB03CC71EB0C01C1E70B4666
:10049000024641464846BDE8F08B13B54FF00000D8
:1004A0004FF00001AFF30080BDE81C40704710B56D
:1004B0004C1084EA530404D54042C1F1000138BF16
:1004C000491E1B4204D55242C3F1000338BF5B1ED4
:1004D000FFF776FF14F0804F04D04042C1F10001D5
:1004E00038BF491E14F0004F04D05242C3F100033C
:1004F00038BF5B1E10BD00000FB4044910B503AA3D
:10050000029800F009FD10BC5DF814FBFC210020EE
:100510000FB47CB50C0009AA009001D02044401E05
:10052000084B7B4469460190089800F0BEFC0546E4
:100530001CB10020694600F0CBFC28467CBC5DF86D
:1005400014FB0000B509000070B50C460546012AF1
:1005500005D02878800600D5EA69002302E001234F
:1005600005E05B1C934202D2E05C0028F9D1A86947
:10057000E618C01AA861286A184428622846AFF312
:10058000008004E0D5E9012114F8010B9047B44242
:10059000F8D32846AFF3008070BD00002DE9F0418C
:1005A0000646002410687529314616A510D0AFF311
:1005B0000080002802DA404213A507E031688A076C
:1005C00001D512A502E0490704D511A5012401E0D7
:1005D000AFF3008000210A2206F1240709E0B0FBF6
:1005E000F2FCB0FBF2F302FB1C00303078541846EA
:1005F000491C0028F3D123462A463046BDE8F04185
:1006000000F0E5B9000000002D0000002B00000004
:10061000200000002DE9F05F894604464FF0000AF3
:10062000DFF874B1FB44C0F820A02046E168884799
:10063000002874D0252806D0D4E901219047206AEB
:10064000401C2062F1E700265F462046E1688847AB
:100650002028054607DB312D05D2781910F8200C2B
:1006600008B10643F1E7B00701D526F00406C4F847
:100670001CA00027C4F818A02A2D09D0284608F08D
:100680000DFC38B304EB8708303DC8F8185019E06A
:1006900059F8041B204604EB87029161E168884702
:1006A000012F054618D1E069002820DA26F020063F
:1006B0001DE0D8F8180000EB800005EB4000303852
:1006C000C8F818002046E1688847054608F0E6FBB0
:1006D0000028EED1012F0AD02E2D08D12046E16846
:1006E00088477F1C0546022F46F02006C4DBA06920
:1006F000002803DA404246F00106A061F00701D06D
:1007000026F010066C2D0BD0682D09D04C2D39D059
:100710006A2D35D0742D35D07A2D33D016E038E0DF
:10072000E1682F4620468847B842054609D16C2F1C
:1007300026D04FF48060E16806432046884705468E
:1007400004E06C2F1AD04FF4807006430DB3A5F16E
:100750004100192802D8203546F400664A46294649
:10076000204626604E46FFF771FD80B101280BD070
:10077000F61D26F0070000F1080956E74020E4E7DF
:100780008020D8E70020D6E706F104094DE7284687
:1007900052E7206ABDE8F09F10AD000070B5064634
:1007A00000F006F90468054630460A22002100F0F0
:1007B000C5FB2C6070BD30B505460B462A4613F8C4
:1007C000014B12F8010B08B1A042F8D01CB100286F
:1007D00002D06D1CF1E7284630BD10B5431C02E085
:1007E00010F8011B71B18107FAD14FF0013202C834
:1007F0008C1A8C4314EAC211F9D0C01A0A0603D02D
:10080000C01E10BDC01A10BD0A0401D0801E10BD4C
:100810000902FCD0401E10BD032A40F2308010F0C7
:10082000030C00F0158011F8013BBCF1020F62448B
:1008300098BF11F801CB00F8013B38BF11F8013B1C
:10084000A2F1040298BF00F801CB38BF00F8013BC9
:1008500011F0030300F02580083AC0F0088051F839
:10086000043B083A51F804CBA0E80810F5E7121D44
:100870005CBF51F8043B40F8043BAFF30080D20763
:1008800024BF11F8013B11F801CB48BF11F8012B2F
:1008900024BF00F8013B00F801CB48BF00F8012B52
:1008A000704710B5203AC0F00B80B1E81850203ADC
:1008B000A0E81850B1E81850A0E81850BFF4F5AF00
:1008C0005FEA027C24BFB1E81850A0E8185044BF8A
:1008D00018C918C0BDE810405FEA827C24BF51F8F7
:1008E000043B40F8043B08BF7047D20728BF31F8EB
:1008F000023B48BF11F8012B28BF20F8023B48BF3C
:1009000000F8012B704702F0FF0343EA032242EA9A
:10091000024200F002B84FF000020429C0F0128039
:1009200010F0030C00F01B80CCF1040CBCF1020FA2
:1009300018BF00F8012BA8BF20F8022BA1EB0C0177
:1009400000F00DB85FEAC17C24BF00F8012B00F86D
:10095000012B48BF00F8012B70474FF0000200B593
:10096000134694469646203922BFA0E80C50A0E8D2
:100970000C50B1F12001BFF4F7AF090728BFA0E880
:100980000C5048BF0CC05DF804EB890028BF40F84C
:10099000042B08BF704748BF20F8022B11F0804F8E
:1009A00018BF00F8012B7047704770477047000070
:1009B00000487047A422002010B5FFF7F9FF006837
:1009C00010BD10B50446FFF7F3FF046010BD2DE91C
:1009D000F0470D4699469246044600F12408016806
:1009E000880604D5E06921F01001216000E00120B3
:1009F000A84201DD471B00E00027A1697A1902EB3C
:100A00000900081AA0612078C00602D42046AFF37E
:100A10000080002608E0D4E901211AF8060090477A
:100A2000206A401C761C20624E45F4DB2078C0060C
:100A30000AD52046AFF3008006E0D4E9012130203A
:100A40009047206A401C2062381EA7F10107F4DCA1
:100A500007E0D4E9012118F805009047206A401CFE
:100A60002062281EA5F10105F3DC2046AFF30080CB
:100A70002078000602D50220BDE8F0870120FBE7C0
:100A800070472DE9FF4F0C461E464FF0FF378BB0E5
:100A9000D2E90001DDF860800A908A46C1F30A5568
:100AA00005B93D46002108464FF00000BAF1000F9D
:100AB00000F4400005DA00EB80004FF4400101EA49
:100AC00050004FEA9059B9F1010F00DDB9460A987C
:100AD00050EA4A000ED044F61050A5F2FF354543C7
:100AE0002F14B8F1000F1ED07542291E1EDDC9F16A
:100AF00000021CE0B8F1010F4FF0000001D03021DE
:100B000003E0F24305E02154401CB042FBDB3046D9
:100B10000022002121540B99C1F80880C1E900206E
:100B20000FB0BDE8F08FBD1B6D1CDEE74A4600DA52
:100B3000694206A800F020FB06AB93E8070003AB70
:100B400083E8070050460A9901F0D8F88DE80700BD
:100B5000A0F500501F3800900398002D0ADD42F2E6
:100B60001F014A460844002303A90390684601F088
:100B700041FB09E0A0F500504A461F38002303A9B5
:100B80000390684601F04BFB8DE807000004000C61
:100B900003D04FF0FF30410800E01046B8F1000FDD
:100BA00003D00022009215461EE0751E05D400F009
:100BB0000DFA303262556D1EF9D5B3460122084355
:100BC00002D000227F1C04E02078302801D10022CE
:100BD0007F1E002A099784D01DE0112D07DA00F04E
:100BE000F5F9303262556D1C50EA0102F5D1084327
:100BF00002D00098C8B10EE00021681E05E0235C19
:100C0000625C63542254401E491C8142F7DBAB46B0
:100C1000A81B401E0990002004F80B000B98099AAD
:100C2000C0F80880C0E9002B7AE711264FF00008D1
:100C300057E72DE9F04F88460446D21D22F0070100
:100C400091B0D1E90001CDE90A0107F020FC02468C
:100C50000B98C00F01D02D2007E02068810701D537
:100C60002B2002E0202101EAC000032A099001D0D4
:100C7000072A05DB03464146204600F0EDF90BE16B
:100C80002078800601D5E06900E00620B8F1650F04
:100C9000814606D0B8F1660F18D0B8F1670F70D151
:100CA00031E00020B9F1110F009001DB112301E0C8
:100CB00009F101030AAA01A90CA8FFF7E2FEDDE988
:100CC0000C70002609F10105834647E001204B46E0
:100CD00000904FF000470AAA01A90CA8FFF7D1FE27
:100CE000DDE90DB00C995D46002610B909F101004F
:100CF0000D18B9EB050003D4C0F1FF3609F1010569
:100D0000A5EB09002BE0B9F1010F01DA4FF0010961
:100D10000020B9F1110F0090484601DD112300E0D9
:100D200003460AAA01A90CA8FFF7ABFEDDE90C7087
:100D30004D4600268346207800070AD4AB4500DAEA
:100D40005D4601A8012D04DD411911F8011C30296F
:100D500007D04F4502DA17F1040F04DA012082466A
:100D60000FE06D1EEEE7002F02DCED1B3E4403E0BA
:100D7000781CA84200DD7D1CB81B00F1010A4FF071
:100D800000472078000703D4AA4501DB4FF0FF3A63
:100D90000021B7F1004F0DF143088DF8431024D026
:100DA00002202B23002F01DA7F422D230A21021E6D
:100DB000A0F1010000DC5FB197FBF1FC97FBF1F2C1
:100DC00001FB1C7C17460CF1300C08F801CDEEE756
:100DD000A8F1010003702188090501D5452100E033
:100DE0006521A0F1010800F8011C09980FA9A1EBE9
:100DF0000807FF1D00B10120411901EBEA70A1694C
:100E00003844081A401EA0612078C00602D420464B
:100E1000AFF30080099828B1D4E901219047206AF6
:100E2000401C20622078C00622D52046AFF3008007
:100E30001EE0002E04DBB34502DD01A8805D00E06A
:100E40003020D4E901219047206A401C2062761CA2
:100E5000AAF101005FEA000A0AD100F0B3F8C06805
:100E60000168405CD4E901219047206A401C20625F
:100E7000281EA5F10105DCDC07E0D4E9012118F802
:100E8000010B9047206A401C2062381EA7F1010721
:100E9000F3DC2046AFF30080032011B041E60000F0
:100EA00001694A1C02610878704700B58FB0CDE92E
:100EB00001310021059105497944CDE9031011461E
:100EC0006846FFF7A7FB0FB000BD0000E5FFFFFF7E
:100ED0000A6802F8010B0A607047D1E900239A42C0
:100EE00002D2531C0B601070704710B5436913B1E8
:100EF000AFF3008001E0FFF727FB012010BD12785F
:100F000000F124010A7000224A700122EDE7116805
:100F10004FF0FF32E9E70000074B70B50D467B4408
:100F2000FFF7C3FF0446284600F098F910B14FF0D0
:100F3000FF3070BD204670BD897F00002DE9F0476D
:100F400091460F4680460446002614F8015B2DB1F9
:100F500000F030F80068405DC007F6D12B2D02D0BC
:100F60002D2D18D0641E4A463946204600F0B4F8AC
:100F700027B13968A14201D1C7F800804FF00204BF
:100F800071050BD54042002803DDFFF711FD046019
:100F9000A007BDE8F08746F48066E4E70028F8DAA9
:100FA000FFF706FD04606FF00040F2E7004870476D
:100FB000A422002010B500F005F8001D10BD00BFF0
:100FC0004D9E000000487047C422002030B5B0F1AB
:100FD0000A024FEA900E71F100034EEA817EB0EBF7
:100FE0000E0061EB91014FEA101E4EEA017E10EBFC
:100FF0000E0041EB11114FEA102E4EEA016E10EB7C
:101000000E0041EB11214FEA104E4EEA014E10EB5B
:101010000E0041EB1141401841F100014FEAD000B0
:1010200040EA41704FEAD10110EB80054FEA81049C
:1010300044EA907444EB01046D1944EB0404521B20
:10104000A3414FF0000348BF0A3200D530BD401C19
:1010500041F1000130BD00002DE9F0411F4604467A
:1010600003260168072A01F4006004DB08B116A515
:1010700005E016A503E008B115A500E015A521F0CF
:1010800010002060A069C01EA0610FB1401EA061C9
:101090002046AFF300804FB1D4E901213846904794
:1010A000206A401C2062C01C206206E0206AFAE729
:1010B000D4E9012115F8010B9047761EF8D220469D
:1010C000AFF30080BDE8F0814E414E006E616E00CE
:1010D000494E4600696E66002DE9F05F824615466E
:1010E0008B4600270AF10104B9460078302801D068
:1010F0009DB113E014F8010B0127782803D058287C
:1011000001D045B10AE00DB1102D07D1002714F828
:10111000010B102502E0082500E00A250026B04654
:101120000EE005FB080005FB06F101271FFA80F819
:1011300001EB1046B6F5803F00D3B94614F8010B19
:10114000294600F0AAF90028EBDABBF1000F05D020
:101150000FB1641E00E05446CBF80040B9F1000F17
:1011600006D0FFF725FC02210160C81EBDE8F09FF4
:1011700048EA0640FAE700002DE9F04781461646A6
:101180008AB0354878440DC88DE80D00324878445F
:10119000801C03AC0DC884E80D0041F69B30084468
:1011A000372190FBF1F290FBF1F5A5F1800501FBF1
:1011B00012041B3C02D56442012000E00020DFF84D
:1011C00098A080460027FA44AAF1BE0A0EE0E00784
:1011D0000AD03246684607EB470101230AEB81013A
:1011E00001F01DF88DE8070064107F1C002CEED183
:1011F000194F7F44AE3F19E0E80715D007EB041004
:101200000DF1180A90E80E008AE80E00C068F0425E
:1012100001D1981908903246012306A903A800F0CD
:10122000FEFF03AB83E807006D10641C002DE3D1C3
:101230004FF0010332466946B8F1000F03A802D00F
:1012400000F0D8FF01E000F0EAFFC9E90001C9F8A9
:1012500008200AB0BDE8F08780A30000007B00F002
:101260008000704710B542485421FFF776FB414893
:101270005421FFF772FB40485421FFF76EFB3F49B2
:101280003B483C4A3F4B08603D490A603A49196077
:10129000531C0365481C1065012008653B48344A0F
:1012A00039A1784400F016FA20B9384878440A3851
:1012B00000F0B5FA37482F4A35A1784400F00AFA11
:1012C00020B9344878440A3800F0A9FA32482A4A4A
:1012D0002FA1784400F0FEF920B92F4878440A384D
:1012E00000F09DFA40232248DC000021224600F055
:1012F000CDF920B125487844543800F090FA1D48C3
:1013000022464023002100F0C1F920B12148784451
:10131000543800F084FA184822461023002100F0C7
:10132000B5F9002806D01C487844BDE8104056386E
:1013300000F075BA10BD104870B5006D20F00104C2
:101340000B4800F03DFA0B4800F03AFA0A4800F06A
:1013500037FA09E0206D20F00105204600F030FA50
:10136000204600F073F82C46002CF3D170BD00002D
:10137000A8210020FC21002050220020EC000020A9
:10138000F0000020F4000020720000007AA20000AB
:101390007700000066A2000052A200000EB5CDE961
:1013A0000001FFF71AFA029069460120ABBE0EBD9C
:1013B00008B5694600900220ABBE08BD1FB58DE898
:1013C000070069460520ABBE04B010BD1FB58DE80F
:1013D0000F0069460620ABBEF6E708B569460090E7
:1013E0000920ABBE08BD1CB5CDE9000169460A2045
:1013F000ABBE1CBD704708B5694600900C20ABBE63
:1014000008BD7546FFF7D2FDAE4605006946534656
:1014100020F00700854618B020B5FEF7BFFFBDE8F5
:1014200020404FF000064FF000074FF000084FF04B
:10143000000B21F00701AC46ACE8C009ACE8C009DC
:10144000ACE8C009ACE8C0098D46704770B50446E9
:10145000051F00F02DFA0068002C14BF446870BD11
:10146000002C18BFAC423CBF20466468F8D301682A
:101470000A18AA4218BF456003D12A6805461144DC
:10148000016028684119A1421CBF6C6070BD616891
:10149000696021680844286070BD3A2800D230385D
:1014A00020F02002412A01D3A2F13700884201D363
:1014B0004FF0FF3070472DE9F04705460C46C868ED
:1014C00020F4201040F48000C860800602D5084651
:1014D00000F03BFBE06841F282014FF0FF39014030
:1014E000022903D0204600F0D9FAB5E000F42041EB
:1014F000B1F5004F0FD1C00306D56168E06A88429C
:1015000000D80846606006E02069E06260606069BB
:10151000FFF771FFA061A0680022EEB200280DDA8B
:10152000E1688B050AD4C043A06041F4903022608A
:10153000E0606068411C61600670A5E0E06890466C
:10154000226040F40050E060206968BB6069FFF7EA
:1015500044FF012704F12405A0B1A08910F4407FC5
:1015600008D0E06900F0EFF9206118B1E06840F4BC
:10157000006016E0E7612561E06820F4407040F407
:1015800080600EE0E06900F0DEF900282061F1D013
:10159000E06840F4006010F4407FE06002D140F465
:1015A0008070E06020696060E06825696FF0010A82
:1015B000C1051FD56168E06A884200D80846411B12
:1015C00004D02246284600F073FAF0BBE06801021E
:1015D00003D5E562C4E9015854E0691CE162616029
:1015E000E16940F48030491EC4E9021030462E7093
:1015F000BDE8F087010202D500F480320AE060689D
:10160000411C61600670E0680A2E40F48030E060A2
:1016100006D00022E16A6068814203D90B4602E0ED
:101620000122F7E70346A7895B1B7F0503D4E7691F
:101630009F4200DDE2B1814200D80146E5620F1A07
:10164000C4E90158002B09DD00E005E022461946F7
:10165000284600F02DFA08B14846C9E747B1A0690D
:10166000E5626560C01BA061E06840F01000E060CA
:10167000E068000208D56168A069E562491B08447A
:101680006560A0615046B3E73046B1E770B5C46805
:10169000A50713D0650211D4B2F5807F09D0B2F549
:1016A000007F06D0B2F5806F08D1012300F124013C
:1016B00006E05D1E6FF07F46B54201D3012070BD8C
:1016C0000161C361416024F470611143C160002075
:1016D00070BD00002DE9F0410C4607461646104645
:1016E00000F06EF82078611C61280AD0722802D0C0
:1016F00077283CD102E00125002405E002250424DE
:1017000002E0082448F2020511F8010B2B2806D04C
:10171000622809D011F8010C74280AD00BE045F0BA
:10172000030544F00204EFE745F0040544F001042A
:10173000EAE744F0100438462146FFF72FFE411C2B
:1017400015D00021316171604FF40071F560F161D5
:101750007061200704D530460222002100F022F9F2
:10176000306D40F0010030653046BDE8F08100206A
:10177000FBE72DE9F0410D460646104C206DC107F0
:1017800004D0410804D020F00104F7E722460EE01F
:10179000542000F0D8F807000ED0206D47F001016A
:1017A0000843542120653846FFF7D7F83A462946C2
:1017B0003046BDE8F0418DE70020D6E7A8210020A3
:1017C0002DE9F04704464FF000094FF0FF37C56898
:1017D000D4E90486A80707D0204600F093F93046E4
:1017E000FFF7E6FD002802DA3846BDE8F087280555
:1017F00002D54046FFF72AFE4C212046FFF7ADF800
:10180000206D20F0010020654846EEE710B5044643
:10181000AFF300802046BDE81040FEF74ABD10B58A
:1018200000F0BAF9BDE8104000F0B0B94FF0013C4B
:1018300050F8042B51F8043B9A4221D1A2EB0C033F
:10184000934313EACC1317D150F8042B51F8043BFF
:101850009A4215D1A2EB0C03934313EACC130BD19C
:1018600050F8042B51F8043B9A4209D1A2EB0C0327
:10187000934313EACC13DBD04FF00000704700BF56
:10188000D01A01BAB1FA81F101F0180122FA01F07F
:10189000CB40C1F12001DBB2C0B2C01A2CFA01F377
:1018A000D11A914311EAC311E6D170477047000085
:1018B00000487047AC22002070477047704770475F
:1018C00038B504460A4600206946AFF30080002878
:1018D00008BF38BD02460099204600F084F9012077
:1018E00038BD012000F0D3B9F8B5AFF3008005464C
:1018F00000200C46102000BF0646A819A0420DD9B2
:10190000324669460020AFF30080070008BF00F0B0
:10191000BEF90098A04218BF0546C419FFF7C8FFDA
:1019200005600746F01D20F007004619284600F024
:1019300053F9B44208BFF8BDA21B31463868BDE870
:10194000F84000F050B970B50646FFF7B1FF0568E2
:1019500006F10B0020F00704B4429CBF002070BDCC
:101960002B466A68BAB11068A04210D304F108018E
:1019700088423CBF5068586007D3516810194160D5
:101980001168091B016058601460101D70BD13467A
:101990005268002AE7D121462846FFF791FF002828
:1019A000DED170BD2DE9F041044616460D4647696B
:1019B000007B80072ED03846FFF70FFD50BB3EB3AB
:1019C000012E02D0022E25D104E0204600F025F998
:1019D00005441DE03846FFF70EFDE168002841F0A0
:1019E0001001E16005DA204600F058F80120BDE85A
:1019F000F081C9030BD56268E16A914200D81146B3
:101A0000A26911442269891A814200DD0846054411
:101A1000002D01DA0220EAE7E16A6068E2688142AB
:101A200006D29103E06203D522F4003141F01002A6
:101A3000A6690027AE4213DCE16A814201D90B4658
:101A400000E0034603EB060C2369ACEB030CAC454A
:101A500006DD814201D98C4600E084469C4505D1D3
:101A6000A760276042F02000A5620DE0AD1BE6698B
:101A7000AE1B8142A66000D90846C01A281A206011
:101A80005819606022F0200003490840E0600020FF
:101A900084F84870ABE70000BFCFD7FFC16821F4DE
:101AA000001141F08001C160002181600160704738
:101AB0002DE9F047814614460E464FF0FF38324874
:101AC000D5685769054209D03846A169FFF78BFCF4
:101AD000002811DB2C48C0430540E5602B46324608
:101AE00049463846FFF76AFCA16920F00042B21A65
:101AF00011440028A16103D02046FFF7CFFF4046E4
:101B0000BDE8F08770B504460569C06A616888421F
:101B100000D80846E16821F42011E160C90312D51C
:101B2000A84208D02246411B2846FFF7C1FF10B14A
:101B30004FF0FF3070BD0020E562C4E90150E0685D
:101B400020F48030E060002070BD10B50446C0680D
:101B500020F02000E060A16AA06988420DD02046F4
:101B6000FFF7D0FFE06820F4405040F01000E06044
:101B7000A06AA0612069E062606044F24001E06810
:101B80008843E06010BD000010000200002801D072
:101B900000F01CB87047000010B5014602A000F02C
:101BA0005DF8012010BD000053494752545245448E
:101BB0003A2052656469726563743A2063616E27E6
:101BC00074206F70656E3A200000000001491820F3
:101BD000ABBEFEE72600020000210160C0E9011053
:101BE000704710207047034640688C46002818BF95
:101BF00088423CBF03464068F8D3186818448842BE
:101C000007D00CF1030020F00700001D411A521A02
:101C10000146081D0A60FFF719BC10B50146C268ED
:101C2000900703D0900607D5886A0AE0FEF7C0FE49
:101C300001210160881E10BD8B69486818440B693A
:101C4000C01A91F848301BB191F84910401A10BDE4
:101C50001103FCD50028FADD401E10BD70B5054605
:101C60000C460A2000E06D1C00F018F835B1287809
:101C70000028F8D102E0641C00F010F814B12078BC
:101C80000028F8D1BDE870400A2000F007B810B570
:101C900000F00CF8BDE81040FFF778BF08B56946C2
:101CA0008DF800000320ABBE08BD000010B5012870
:101CB00005D0002103A0FFF7D1FF012010BD09A12D
:101CC000F8E7000053494752544D454D3A204F75AF
:101CD00074206F662068656170206D656D6F727924
:101CE000000000003A2048656170206D656D6F72DC
:101CF0007920636F72727570746564005FEA400CDE
:101D000008BF91F0000F4FEA8C234FEAC12243EA4B
:101D100051514FEA1C5018BF00F5F0404FEA300017
:101D200018BF41F000415FEA6C5C00F02980BCF113
:101D3000FF3F08BF40F080407047130C06BF1204FD
:101D40004FF0100C4FF0000C130E04BF12020CF1F8
:101D5000080C130F04BF12010CF1040C930F04BF05
:101D600092000CF1020CD30F04BF52000CF1010CD5
:101D700011464FF00002A0F11F00A0EB0C007047CD
:101D800011F0004F08BF704731F000413FF4D5AF6C
:101D90000B0C06BF09044FF0100C4FF0000C0B0E9B
:101DA00004BF09020CF1080C0B0F04BF09010CF170
:101DB000040C8B0F04BF89000CF1020CCB0F04BF85
:101DC00049000CF1010CCCF12003A0EB0C0022FA2D
:101DD00003F302FA0CF241EA030100F1010070473B
:101DE00020F07F4C80EA030023F07F47ACEB070331
:101DF00003F57C5300F0004003F1FF032DE9804917
:101E00004FEA154B09B44FEA144325EA0B4E24EA76
:101E100003480FF2042606EB132749083E785FEAD1
:101E2000320203FB0667C7F5000707FB06F64FEA19
:101E300054374FEAD64606F1020607FB066CCCF192
:101E4000005C4FEA1C472CEA074C07FB06F40CFB2E
:101E500006F504EB15464FEA961634BF00204FF006
:101E600000404FEAD13706FB07FC4FEA1C4C0CFB45
:101E70000BF7D21B03FB0CF761EB07010CFB0EF712
:101E8000B0EB074072EB17420CFB08F734BFA2EB34
:101E90000742B2EB074261EB17414FEA0C444FEAAD
:101EA000910706FB07FC4FEA1C4C0CFB0BF7B0EB51
:101EB000C74072EB573203FB0CF734BFA2EBC742AB
:101EC000B2EBC74261EB57310CFB0EF7B0EBC7002A
:101ED00072EB57720CFB08F734BFA2EBC702B2EBF0
:101EE000C70261EB5771039F4FEA816141EA92118A
:101EF00004EBCC044FEAD1374FEA826206FB07FCC1
:101F000042EA90124FEA80604FEA1C4C0CFB0BF740
:101F1000D21B03FB0CF761EB07010CFB0EF7B0EBD8
:101F2000074072EB17420CFB08F734BFA2EB0742E5
:101F3000B2EB074261EB17414FEA8C554FEA91072C
:101F400004EB9C2406FB07FC4FEA1C4C0CFB0BF734
:101F5000B0EBC74072EB573203FB0CF734BFA2EB78
:101F6000C742B2EBC74261EB57310CFB0EF7B0EB47
:101F7000C70072EB57720CFB08F734BFA2EBC70225
:101F8000B2EBC70261EB577115EB4C254FEA81614B
:101F900041EA92114FEA82624FEAD13742EA901247
:101FA00006FB07FC44F100044FEA80604FEA1C4C3A
:101FB0000CFB0BF7D21B03FB0CF761EB07010CFBCF
:101FC0000EF7B0EB074072EB17420CFB08F734BF7B
:101FD000A2EB0742B2EB074261EB174115EB1C1570
:101FE0004FEA813141EA92414FEA823242EA90421D
:101FF0004FEA80304FEA0C7644F1000448EA03438C
:102000004EEA0B484FF0000EB2EB080C71EB0307E1
:1020100024BF624639464EEB0E0E4FF0000B0018FF
:10202000524149414BEB0B0BB2EB080C71EB030730
:102030007BF1000B24BF624639464EEB0E0E4FF08B
:10204000000B0018524149414BEB0B0BB2EB080C53
:1020500071EB03077BF1000B24BF624639464EEB60
:102060000E0E51EA020718BF46F0010616EB0E7677
:1020700055F1000254F1000103D5BDE88901BDE826
:102080000088BDE88901BDE80048B619524141EB1E
:102090000101A3F10103704780807F7E7D7C7B7A04
:1020A0007978777676757473727171706F6E6E6D04
:1020B0006C6C6B6A6A6968686766666564646363AA
:1020C00062616160605F5F5E5E5D5D5C5C5B5B5A30
:1020D0005A5959585857575656555555545453539D
:1020E00052525251515050504F4F4F4E4E4D4D4DF8
:1020F0004C4C4C4B4B4B4A4A4A4949494848484743
:102100004747474646464545454444444443434380
:102110004342424242414141002B9C4630D4770029
:102120002BD01CB54FEA370703B44FF010004FF027
:102130001001BAF1000F06D0BCF1000FDCBF40F077
:10214000080040F008014FF000000FBCBDE810404F
:102150000BF1010BBBF1010F08BF5FEA170722BFAC
:1021600012F1010211F101014FF0004143F10003AE
:1021700000F0004043EA00007047F9D35708D0E769
:1021800046EA064613F1400F4FEA16461FDD13F1EB
:10219000200FDFBF16430A46002120335B42BED02A
:1021A000C3F1200746EA064602FA07F74FEA164649
:1021B00046EA0706C3F1200722FA03F201FA07F7FD
:1021C00021FA03F14FF0000342EA0702A7E746EACB
:1021D000020646EA06464FEA164646EA0106BCBF34
:1021E00046EA0646360C4FF000034FF000024FF06F
:1021F000000194E72DE9804C9A46934670B491E82B
:10220000380007C831EA400C48BF34EA430C03D514
:10221000FFF7E6FDFFF780FFF0BCBDE8008C2DE97D
:10222000804C9A46934670B491E8380007C810F085
:10223000804F08BF13F0804F03D100F005F8FFF77F
:102240006BFFF0BCBDE8008C20F07F4780EA030004
:1022500023F07F4C07EB0C03A3F57C5300F0004008
:10226000A3F1FE0392F0000F00F0B38095F0000F91
:1022700000F077802DE901494FEA11404FEA1446FA
:1022800021EA004800FB06FC24EA064708FB06F6A4
:1022900007FB08F800FB07F718EB06484CEB164C59
:1022A0004FEA124B18EB07484FEA15464CEB174024
:1022B00022EA0B4E0BFB06FC25EA06470EFB06F650
:1022C00007FB0EFE0BFB07F71EEB064E4CEB164C06
:1022D0004FF000061EEB074E4CEB174B18EB0B08AC
:1022E00040F1000018EB0E0B58EB000840F1000025
:1022F0008F1A4FF000013CBFC943661B14BFB5EBFA
:10230000040C00213CBFC943F61B4FEA17444EEAB8
:102310008E0E27EA04454FEA1C4704FB07622CEAAD
:10232000074C05FB07F70CFB05F604FB0CFC16EB52
:10233000074642EB174216EB0C4642EB1C421BEBE6
:10234000060658EB0202414146EA9E0601D5BDE869
:102350000189B619524141EB0101A3F10103BDE826
:1023600001894FEA14454FEA114724EA054621EA5C
:10237000074C05FB07F406FB07F70CFB06F105FB12
:102380000CFC11EB074144EB17444FEA124711EBE9
:102390000C4144EB1C4422EA074C05FB07F206FB08
:1023A00007F70CFB06F605FB0CFC16EB074642EBA9
:1023B000174216EB0C4642EB1C456A1854F100011B
:1023C00048BF7047B619524141EB0101A3F1010327
:1023D000704795F0000F37D04FEA11424FEA14478B
:1023E00021EA024624EA074C02FB07F106FB07F745
:1023F0000CFB06F402FB0CFC14EB074441EB174109
:102400004FEA154714EB0C4441EB1C4125EA074CFD
:1024100002FB07F506FB07F70CFB06F602FB0CFCBC
:1024200016EB074645EB174516EB0C4645EB1C42F1
:10243000121951F1000148BF7047B619524141EBE2
:102440000101A3F1010370474FEA14454FEA114718
:1024500024EA054621EA074C05FB07F106FB07F7CE
:102460000CFB06F24FF0000605FB0CFC12EB0742DA
:1024700041EB174112EB0C4251EB1C4148BF704736
:10248000921841EB0101A3F1010370471CB56420D0
:1024900001F046F900F0AEF8142001F041F901A86E
:1024A00000F090F888B99DF80400000712D4BE200F
:1024B0008DF8000008208DF8010000208DF8020042
:1024C0000321684600F0B4F808B101201CBD0A20C1
:1024D00001F026F900201CBD1CB504460721684602
:1024E00000F064F808B101201CBD9DF800002070C8
:1024F000000601D502201CBD9DF801009DF80210C8
:10250000000340EA01109DF80310DFED160A40EACF
:10251000111100EE101A61609DF80300B8EE400A38
:1025200000079DF80420000B20EE200A9FED0E1AF4
:1025300040EA02209DF8052020EE010A1043A06029
:1025400084ED030A00EE100A9FED081A0020B8EE91
:10255000400A60EE200A9FED060A10EE810A84ED23
:10256000040A1CBD000080350000C842000048433A
:102570000000484270B50D46064600F047F890B995
:1025800001F00EFA044609E03046FFF7A5FF0028E7
:102590000AD0012808D0052001F0C2F801F000FAA5
:1025A000001BA842F0D3012070BD000008B56422D2
:1025B00000920B4602467121014801F0A9FA08BDBC
:1025C0004C0100201CB5044671208DF804006420E5
:1025D0000090012301AA7021054801F02BFB28B9C6
:1025E00001212046FFF7E2FF002800D001201CBD9A
:1025F0004C01002008B5BA208DF800000121684682
:1026000000F016F8002800D0012008BD08B5AC2065
:102610008DF8000033208DF8010000208DF80200B5
:102620000321684600F004F8002800D0012008BD0E
:1026300008B5642200920B4602467021014801F061
:10264000F9FA08BD4C01002010B50EA0FDF754FFAB
:1026500000F0D4FA04F0A0FD12A0FDF74DFF00F049
:1026600089FD17A0FDF748FF00221146012006F062
:10267000EDFC1A49086101200870BDE8104018A05F
:10268000FDF73ABF5B4150505D2053797374656D1F
:1026900020496E697469616C697A696E672E2E2EA5
:1026A0000D0A00005B4150505D2053656E736F72E0
:1026B0007320496E697469616C697A65640D0A00FA
:1026C0005B4150505D204553503832363620496EBC
:1026D000697469616C697A65640D0A00980000206C
:1026E0005B4150505D2053797374656D2052656174
:1026F00064790D0A0000000010B5A4B02422184926
:102700006846FEF7CEF816492422243109A8FEF7C0
:10271000C8F813492422483112A8FEF7C2F810491C
:1027200024226C311BA8FEF7BCF86A4600210D4834
:1027300006F004FD0C4C09AA002160600B4806F06D
:10274000FDFCA06012AA0021094806F0F7FCE06039
:102750001BAA0021074806F0F1FC24B010BD0000C0
:1027600074AF0008F9730008980000203960000871
:102770005D2C0008595D0008B0EE401A10B581EEDE
:10278000200ADFED060A06F013F8F7EE000A30EE35
:10279000C00ADFED030A20EE200A10BD01DE423E32
:1027A000002A2D472DE9F05F8346544AC81789183F
:1027B000A1FB012340F1FF30514C00FB0133B4F980
:1027C000105001FB0038A2FB0537EE1708FB05751A
:1027D00002FB0659B4F90E504FF0000AA5FB017C2C
:1027E000EE1706FB01C605FB00656E0446EAD73608
:1027F0007F04FB1846EB09061AEB0309B4F90A300B
:10280000B4F90C50A2FB037C46EBC5054FEAE37616
:1028100008FB03C302FB0632B4F908604FEA172332
:10282000A6FB01C84FEAE67707FB018106FB001013
:102830004FEA003143EA02634FEA0C3041EA1C518F
:10284000181841EB2222001C42F50043E288A0FB4D
:10285000027603FB026200FB0A204210C31752EA11
:10286000030048D0CBF58016F017C10741EA5601A6
:10287000F607B6EB090640F63547A6FB070C61EBF9
:10288000050101FB07C1002506FB0511FDF70FFE41
:10289000B4F91630420B42EAC142A3FB027CDD17B9
:1028A00005FB02C54E1303FB0653A7FB025C03FBAB
:1028B00002C207FB06236A0E42EAC3125D16B4F990
:1028C0001430A3FB007CDE1706FB00C603FB016689
:1028D000FB0C801843EA46336941C01841EBE641DE
:1028E0004FEA102040EA0160B4F912104FEA0111DA
:1028F0004018BDE8F09F0020FBE70000000CFEFF41
:10290000741C002010B500F0D3F8582802D100F054
:1029100011F808B1012010BD03220521022000F0AA
:10292000EDF8022000F0F2F8642000F0F9FE00203B
:1029300010BD000000B587B018226946882000F05D
:10294000C3F810B1012007B000BD2748BDF8001042
:1029500001809DF803109DF8022042EA0121418088
:102960009DF805109DF8042042EA01218180BDF800
:102970000610C1809DF809109DF8082042EA012147
:1029800001819DF80B109DF80A2042EA0121418146
:102990009DF80D109DF80C2042EA012181819DF8DF
:1029A0000F109DF80E2042EA0121C1819DF81110FF
:1029B0009DF8102042EA012101829DF813109DF834
:1029C000122042EA012141829DF815109DF8142041
:1029D00042EA012181829DF817109DF8162042EAF3
:1029E0000121C1820020AEE7741C00207CB50446A2
:1029F00006226946F72000F067F808B101207CBD87
:102A00009DF800009DF80110000340EA01109DF8B8
:102A10000210DFED240A40EA11129DF803009DF830
:102A20000410000340EA01109DF8051040EA11105F
:102A30001B49C4E900020D88C310B1F90260C5EB5F
:102A40002010A3EB45034043B1F904107343001376
:102A5000DB12484303EBA03505EB85008030001204
:102A600000EE100A29461046B8EEC00A80EE201A81
:102A700084ED031AFFF796FE00EE100ADFED0A0A56
:102A8000B8EE400A20EE200ADFED080A84ED040AC1
:102A9000A560FFF771FE84ED050A00207CBD0000F3
:102AA000741C00200000C8420000803B80E6C5473F
:102AB00008B501226946D02000F006F808B10020D0
:102AC00008BD9DF8000008BD77B581B015460E46DB
:102AD0006424012301AAEC210748009401F0AAF81C
:102AE000002806D12B463246ED210348009401F020
:102AF0000FF804B070BD00004C010020400140EA16
:102B000081001043C1B2F42000F006B88006010E27
:102B1000F52000F001B800001CB502238DF8040078
:102B200064208DF80510009001AAEC21014801F005
:102B300081F81CBD4C010020FEE7000070B52C4E52
:102B40009FED2C0A2DED028B7078022849D3B0EE50
:102B5000408A0024F0EE488A012538E030780A22C5
:102B6000401B00F10A0191FBF2F302FB1311093043
:102B700090FBF2F302FB13001F4AC9B2C0B201EB93
:102B8000410100EB400002EB810102EB800091ED7E
:102B9000000AD0ED000A90ED011AD0ED021A30EED5
:102BA000600AD1ED010A70EEC10A20EE000A91ED33
:102BB000021A00EEA00A31EE611A01EE010A06F0D7
:102BC00029F9641C70EE288A6D1CE4B2EDB27078AD
:102BD0008542C3D344B100EE104AF8EE400A88EEB5
:102BE000A00ABDEC028B70BDB0EE480AF9E7000008
:102BF000DE000020000000003021002010B5044C51
:102C00006068002802D106F0BFF9606010BD0000C6
:102C1000AC000020704730B5E8B1E3B1457800243E
:102C20000DB1B9B117E099B1057801215DB14568E1
:102C3000521B322A0FD31A7842B100221A70417007
:102C40000470012030BD0170426004E00122F5E70C
:102C5000047000E04470002030BD00009AB00020F5
:102C6000179016908DF848000546012731A0FDF712
:102C700043FC00F09BF8DFF8D480354E00F090FE66
:102C800004464021404600F081FE012807D0002183
:102C900012AB224616A8FFF7BEFF38B901E00121AA
:102CA000F6E71FB9601BB0F5FA7F3ED302A804F027
:102CB00043FA9DF8480028B100F00AFA032805D32A
:102CC000012104E002A800F073F82CE000218DF847
:102CD0004C1005281AD000208DF84D001D48D0F862
:102CE000880000B101208DF84E001B48D0F8880004
:102CF00000B101208DF84F00306848B1306840F6CF
:102D0000B831201A884203D8012002E00120E3E70D
:102D100000208DF850004FF47A70B4FBF0F015905D
:102D200013A800F0F5F825460027142006F0F0F867
:102D3000A4E700005B446973706C61795461736B44
:102D40005D20537461727465640D0A0000080048C8
:102D500004000020780200200C03002008B50023A6
:102D6000009313460A460146082003F0C9FF08BD38
:102D700030B414460D4600280ED0002D0CD0002C87
:102D80000AD0007808B105A300E005A32146284633
:102D900030BC04A2FDF7BCBB30BC70474F4B0000F9
:102DA0004E4F0000576946693A25730004F000B899
:102DB00030B58FB004006AD0002003F0C9FF40F2A4
:102DC000FF7234A10820FFF7C9FF606808F03AF8E5
:102DD000CDE9000133A2302102A8FDF799FB4FF69F
:102DE000FF752A4602A91E20FFF7B8FFA06808F069
:102DF00029F8CDE900012FA2302102A8FDF788FBB8
:102E00002A4602A93220FFF7A9FFD4ED030A9FED5D
:102E10002D1A80EE810A10EE100A08F013F8CDE9A1
:102E2000000129A2302102A8FDF772FB2A4602A95F
:102E30004620FFF793FF207804F088F9034626A286
:102E4000302102A8FDF764FB4FF6E07202A95A2078
:102E5000FFF784FF94F83C0008B122A300E022A30E
:102E600023A2302102A8FDF753FB94F83C0010B1D7
:102E70004FF4FC6201E04FF4784202A96E20FFF7A4
:102E80006DFF4FF61F021DA1DC20FFF767FF0FB09B
:102E900030BD0000506167653120454E562F424FCE
:102EA0005800000054656D70203A20252E316620B0
:102EB0004300000048756D20203A20252E31662001
:102EC000252500000000C84250726573203A202575
:102ED0002E3166206850610053746174653A202574
:102EE000730000004F4B00004641494C00000000B9
:102EF00056616C69643A2025730000004B455931D6
:102F0000202D3E204E6578742050616765000000DA
:102F100070B58CB004007CD0002003F019FF40F2A3
:102F2000FF7241A10820FFF719FF302269462046B1
:102F3000FFF71EFF20784FF4FC654FF4784608B188
:102F40002A4600E0324669461E20FFF707FF6078F8
:102F500008B138A300E038A338A230216846FDF755
:102F6000D7FA607808B12A4600E032466946322036
:102F7000FFF7F4FEA07808B132A300E02EA333A23D
:102F800030216846FDF7C4FAA07808B12A4600E06F
:102F9000324669464620FFF7E1FEE07808B129A3F2
:102FA00000E025A32CA230216846FDF7B1FAE078B5
:102FB00008B12A4600E0324669465A20FFF7CEFEA5
:102FC000207908B127A300E028A32AA2302168466F
:102FD000FDF79EFA20794FF6FF7510B14FF6E072BB
:102FE00000E02A4669466E20FFF7B8FE24A2302191
:102FF0006846A368FDF78CFA2A4669468220FFF7E7
:10300000ADFE00F06BF801464FF61F042246A020EB
:1030100000E006E0FFF7A2FE22461CA1DC20FFF73D
:103020009DFE0CB070BD00005061676532205359A1
:10303000530000004F4B00004E4F00004D515454C0
:103040003A257300494E495400000000554152543E
:10305000313A25730000000055415254333A25732C
:1030600000000000414354495645000049444C4586
:103070000000000055335258203A2573000000002C
:1030800055702020203A256C757300004B4559314E
:10309000202D3E204E657874205061676500000049
:1030A00010B501220421084800F075FC0A2000F048
:1030B00037FB01221103054800F06DFCBDE810400C
:1030C000642000F02DBB0000000C00480008004800
:1030D0000148007870470000D80000200C480078B4
:1030E000072813D2DFE800F00406080A0C0E1000CF
:1030F00008A0704709A070470AA070470DA070474C
:1031000010A0704713A0704716A0704717A0704713
:10311000D80000205245534554000000494E495400
:1031200000000000574946495F434F4E4E45435407
:10313000494E4700574946495F434F4E4E45435419
:10314000454400004D5154545F434F4E4E45435447
:10315000494E47004D5154545F434F4E4E454354E2
:10316000454400004552524F52000000554E4B4E10
:103170004F574E0010B5012208210B4800F00BFC00
:1031800000224FF48051094800F005FC0022042180
:10319000074800F000FC642000F0C2FAFFF780FF4F
:1031A00004490120087010BD0004004800080048D0
:1031B000000C0048D800002000B5A1B003460091E3
:1031C00007A2802101A8FDF7A3F942F210720AA11B
:1031D00001A800F039F9002800D0012021B000BD7D
:1031E00041542B4D515454434F4E4E3D302C2225CB
:1031F00073222C25642C31002B4D515454434F4ED7
:103200004E4543544544000010B592B011A111A0A1
:10321000CDE9000110A315A2402102A8FDF778F91D
:1032200041F2883422461CA102A800F00DF970B9C1
:103230001AA000901BA320A2402102A8FDF768F964
:10324000224615A102A800F0FFF8002800D00120B6
:1032500012B010BD000000006D65646963696E65A1
:103260005F626F785F3030310000000041542B4DB9
:10327000515454555345524346473D302C312C222E
:103280002573222C222573222C222573222C302CEC
:10329000302C2222000000004F4B00006F66666C4D
:1032A000696E65006D65646963696E655F626F78FC
:1032B0002F6C77740000000041542B4D515454433F
:1032C0004F4E4E4346473D302C3132302C302C226D
:1032D0002573222C222573222C302C300000000074
:1032E00000B5ADF5037D8DE80E00034608A24FF44E
:1032F000007103A8FDF70CF941F288320CA103A874
:1033000000F0A2F8002800D001200DF5037D00BDDB
:1033100041542B4D5154545055423D302C2225736D
:10332000222C222573222C25642C25640000000009
:103330004F4B000000B5A1B00346009107A28021C9
:1033400001A8FDF7E5F841F288320AA101A800F0D2
:103350007BF8002800D0012021B000BD41542B4D46
:103360005154545355423D302C222573222C256450
:10337000000000004F4B000010B510A11348FDF7EE
:103380001AFA040008D012A1FDF715FA20B1011BAA
:103390002046891CFDF7BFFA0EA10C48FDF70BFA79
:1033A000104C08B1012020700FA10848FDF703FA66
:1033B000002801D00320207010BD00002B4D515477
:1033C00054535542524543563A0000008C1C00208D
:1033D0000D0A00005749464920444953434F4E4E79
:1033E00045435400D80000202B4D515454444953B8
:1033F000434F4E4E454354454400000070B50F4DB9
:103400004FF4805400222146284600F0C4FA64207C
:1034100000F086F901222146284600F0BCFA4FF45C
:10342000FA7000F07DF90649002048808880A110DC
:10343000BDE870400348FDF76EBA00000008004880
:10344000D80000208C1C002070B5ADF5007D15461D
:103450000E46044606F08CFB1C49002048808880FC
:103460004FF480611A48FDF756FA06F0A1FB234697
:1034700018A24FF400716846FDF74AF86846FDF758
:10348000ACF982B24FF47A736946144802F072FACA
:1034900000F086FA044611E046B131460C48FDF7CB
:1034A0008AF918B100200DF5007D70BD0CA1084807
:1034B000FDF781F938B90A2000F032F900F070FA0E
:1034C000001BA842E8D30120EDE70000D80000204F
:1034D0008C1C002025730D0A000000000C03002046
:1034E0004552524F520000000A49094A4B88D054B5
:1034F0004888401CC0F30900488048888A88904268
:1035000004D18888401CC0F30900888070470000FF
:103510008C1C0020D800002010B50D4CA2B0022257
:103520002270034600910BA2802101A8FCF7F0FF56
:1035300043F698220CA101A8FFF786FF20B10620D0
:103540002070012022B010BD032020700020F9E778
:10355000D800002041542B43574A41503D22257347
:10356000222C2225732200005749464920474F54F8
:103570002049500070B503244FF47A756E1008E0AE
:103580002A460EA10EA0FFF75FFF28B1304600F0DB
:10359000C7F8641EE4B2F3D23CB14FF4FA64224699
:1035A00006A109A0FFF750FF08B1012070BD224617
:1035B00002A108A0FFF748FF002070BD4F4B00009C
:1035C000415445300000000041542B43574D4F44B7
:1035D000453D310041542B4357444843503D312C25
:1035E0003100000010B54FF4FA620BA10BA0FFF7F9
:1035F0002BFF60B90DA10F48FDF7DDF8002807D0BB
:10360000C01DFDF7CBF8022803D0032801D000200D
:1036100010BD012010BD00004F4B000041542B4352
:1036200049505354415455530000000053544154E1
:1036300055533A008C1C002072B6FEE710B590F886
:10364000253000210122022B03D00421C163012176
:1036500022E003681C6824F00E041C60836C1C6864
:1036600024F480741C6003681C6824F001041C604E
:1036700090F84430046C03F01F0302FA03F3636014
:10368000D0E913345C60436D33B11C6824F480745A
:103690001C60D0E916345C6080F82520002280F898
:1036A0002420084610BD70B590F825200024012183
:1036B0002346022A07D00422C26380F8251080F82E
:1036C0002430012429E00268156825F00E051560F4
:1036D0000268156825F001051560826C156825F4EF
:1036E0008075156090F84420056C02F01F0201FA05
:1036F00002F26A60D0E913255560426D32B1156857
:1037000025F480751560D0E91625556080F82510E0
:1037100080F82430816B01B18847204670BD0000DD
:1037200070B5044600F03CF90546601C02D0044820
:103730004068044400F034F9401BA042FAD370BD45
:10374000080000202DE9F04FDFF820920023012629
:103750000324A9F1040B85B00F2709F1040AABF18A
:10376000040EFAE006FA03F52A407CD091F804C072
:103770000CF0030CBCF1010F02D0BCF1020F26D1FA
:10378000D0F808C0CDF800C04FEA430C04FA0CF89A
:10379000CDF810C0DDF800C02CEA080CCDF800C050
:1037A000D1F80C80DDF810C008FA0CF8DDF800C084
:1037B00048EA0C08C0F80880D0F804C02CEA050CD0
:1037C0000D79C5F300159D4045EA0C0545600D795E
:1037D000ED43AD070ED0C5684FEA430804FA08FC74
:1037E00025EA0C05D1F808C00CFA08FC4CEA050CD7
:1037F000C0F80CC00D7905F00305022D16D1DD08C7
:1038000000EB850CCDF808C0DCF820805D074FEA9E
:10381000D56C07FA0CF528EA05080D6905FA0CF5D0
:10382000DDF808C045EA0805CCF8205005684FEAE5
:10383000430CCDF808C004FA0CFC25EA0C0591F8FD
:1038400004C00CF00308DDF808C008FA0CF848EAD8
:103850000508C0F800804D6815F4403F7CD0444D09
:10386000D5F860C000E077E04CF0010CC5F860C00E
:103870002D6E23F0030C05F0010500953D4D6544C8
:103880000295AD684FEA837C4FEA1C7807FA08FC82
:1038900025EA0C05B0F1904F06D0DFF8DCC060459A
:1038A00005D14FF0010C20E04FF0000C1DE0DFF8D7
:1038B000CCC0604502D14FF0020C16E0DFF8C0C06A
:1038C000604502D14FF0030C0FE0DFF8B8C060454F
:1038D00002D14FF0040C08E0DFF8ACC0604502D123
:1038E0004FF0050C01E04FF0060C0CFA08FC4CEA16
:1038F000050C029DC5F808C0D9F80050CC46D1F897
:10390000048095435FEAC82800D51543CCF80050E1
:10391000DAF80050D446D1F8048095435FEA88284D
:1039200000D51543CCF80050DBF80050DC46D1F848
:10393000048095435FEA883800D51543CCF80050E1
:10394000DEF80050F446D1F8048095435FEAC838A9
:1039500000D51543CCF800505B1C0A6832FA03F519
:103960007FF400AF05B0BDE8F08F0000080401400F
:103970000010024000000140000400480008004818
:10398000000C00480010004800140048006908407E
:1039900000D0012070470AB1816170478162704791
:1039A00001488068704700000800002090F841201E
:1039B000202A24D190F84020012A20D0012280F82A
:1039C0004020242280F841200268136823F001037C
:1039D00013600268136823F480531360026813684D
:1039E0000B43136001680A6842F001020A6020215B
:1039F00080F84110002180F84010084670470220EE
:103A0000704790F84120202A22D190F84020012AC6
:103A10001ED0012280F84020242280F84120026834
:103A2000136823F0010313600268136823F47063C2
:103A300043EA0121116001680A6842F001020A604C
:103A4000202180F84110002180F84010084670477E
:103A50000220704770B5040004D094F8410000259E
:103A600010B106E0012070BD84F84050204600F0FF
:103A700087F9242084F841002068016821F00101C1
:103A800001606068216820F07060086120688168CA
:103A900021F400418160E0680128A06830D040F442
:103AA000044021688860E0680228206841682AD0C4
:103AB00021F40061416020684168144A114341606B
:103AC0002068C16821F40041C160D4E904010843C1
:103AD000A16940EA01202168C860D4E907010843D0
:103AE000216808602068016841F001010160656497
:103AF000202084F84100256384F84250002070BDE6
:103B000040F40040CDE741F40061D3E700800002BB
:103B10002DE9F84F044690F84100DDF828A01F4633
:103B200090468B4620287ED194F8400001287AD018
:103B3000012084F84000FFF733FF06460122009081
:103B40001923D103204602F01DF8E0BB222084F89F
:103B50004100102084F8420000256564C4F82480E8
:103B600067856563618D3148FF274FF080784FF09E
:103B70000079FF2903D927853A46009039E0618D05
:103B8000218500903AE05946204601F0E3FF13E01A
:103B900002F036F8B8B92068406A616A0870606A55
:103BA000401C6062208D401E80B22085618D491EC0
:103BB0006185618D01B168B1608D32460028514642
:103BC0002046E5D100E002E002F06EF8D0B101201D
:103BD000BDE8F88F5346002280212046009601F070
:103BE000D1FF0028F3D1608DFF2804D927853A46FC
:103BF00000954346C7E7608D2085009594F82820FE
:103C00004B46C0E721682020C86121684A68084BFC
:103C10001A404A6084F8410084F8425084F84050C9
:103C20000020D5E7FFE70220D2E700000024008053
:103C300000E800FE2DE9FF4F81B0044690F84100F6
:103C4000DDF838B01F46904620287BD194F840001C
:103C5000012877D0012084F84000FFF7A1FE064636
:103C6000012200901923D103204601F08BFF002888
:103C700053D1212084F84100102084F8420000250F
:103C80006564C4F8248067856563608D3A49FF27C1
:103C90004FF080794FF0007AFF2802D927854B46F4
:103CA00005E0608D208500045346000C10D022688A
:103CB00098F800009062606A401C6062608D401E4F
:103CC0006085208D401E2085401CC2B2009101E01D
:103CD000002200912046029901F03CFF14E000BF51
:103CE00002F00DF8C8B9606A216800788862606ADD
:103CF000401C6062608D401E6085208D401E80B239
:103D00002085618D01B160B1608D32460028594631
:103D10002046E5D101F0C8FFE0B1012005B0BDE8C3
:103D2000F08F5B46002280212046009601F02AFF9A
:103D30000028F2D1608DFF2805D927853A464B46E9
:103D40000095C7E716E0608D2085009594F828203F
:103D50005346BFE721682020C86121684A68074BA5
:103D60001A404A6084F8410084F8425084F8405078
:103D70000020D3E70220D1E70020008000E800FE09
:103D80002DE9F04198B00446142111A8FCF7E5FD97
:103D900044216846FCF7E1FD2B4920682B4C122793
:103DA00000254FF440764FF00108884223D180204F
:103DB00000900795684600F04DF908B1FFF73CFC0C
:103DC000E06C40F00100E064E06C11AA00F001003A
:103DD00016900420CDE9145082E8C00111A94FF0DB
:103DE0009040FFF7AFFCA06D40F48000A065A06D8F
:103DF00000F4800024E01649884222D1801500900A
:103E00000895684600F026F908B1FFF715FCE06C4C
:103E100040F00400E064E06C11AA00F00400169089
:103E20000820CDE9145082E8C00111A90948FFF724
:103E300089FCA06D40F08040A065A06D00F080403E
:103E4000169018B0BDE8F081005800400010024004
:103E50000078004000080048024881684268114428
:103E6000816070470800002010B50024032000F096
:103E700079F80F2000F008F808B1012401E000F003
:103E800025F8204610BD000070B50E4E05460024F2
:103E9000706898B14FF47A71B1FBF0F00A49096883
:103EA000B1FBF0F001F01DF840B9102D06D2002250
:103EB0002946501E00F036F8356000E00124204607
:103EC00070BD000008000020140000200D4808B557
:103ED000016E41F001010166016E01F001010091E6
:103EE000816D41F080518165806D002200F080502D
:103EF00000900F21901E00F015F8BDE8084000F07A
:103F0000A1B8000000100240002809DB00F01F02E9
:103F1000012191404009800000F1E020C0F800112B
:103F200070470000F0B40E4B1B680C46C3F302232D
:103F3000C3F10705042D00D90425191D072901D255
:103F4000002300E0DB1E012606FA05F1491E214090
:103F500099409E40761E16403143F0BC04F0C2BA30
:103F60000CED00E0064900F0070208684FF6FF0379
:103F7000184040EA0220034A1043086070470000DE
:103F80000CED00E00000FA052B492C4B0A683221A9
:103F90004A432B4940B1B0F5007F086829D020F48E
:103FA000C06040F480602CE00868C0F34120022823
:103FB00004D051F8800F20F4807022E0D1F8800006
:103FC00020F48070C1F88000086820F4C06040F4DC
:103FD00000700860B2FBF3F0401C00E0401E4A692C
:103FE000520501D50028F9D1486940050AD50320BA
:103FF0007047C0F34120022806D051F8800F40F4EA
:104000008070086000207047D1F8800040F4807014
:10401000C1F88000086820F4C06040F400700860B7
:10402000B2FBF3F0401C00E0401E4A695205DBD5AC
:104030000028F9D1D8E700001400002040420F000A
:10404000007000400248816841F4804181607047FF
:10405000007000402DE9F8430446006800269D4D9D
:1040600000035ED5A86D0027C00008D4A86D40F0FD
:104070008050A865A86D012700F080500090DFF8FF
:104080005892D9F8001041F48071C9F80010FFF778
:1040900087FC804606E000BFFFF782FCA0EB08002B
:1040A00002282BD8D9F80000C005F5D5D5F8900026
:1040B00010F4407014D0216C814211D0D5F89000DA
:1040C000D5F8901020F4407041F48031C5F890107C
:1040D000D5F8901021F48031C5F89010C5F8900003
:1040E000C00711D0FFF75CFC804641F2883907E039
:1040F000FFF756FCA0EB0801494501D903260BE068
:10410000D5F890008007F3D5D5F89000216C20F405
:1041100040700843C5F890001FB1A86D20F0805092
:10412000A8652078C00707D0D5F88800616820F01E
:1041300003000843C5F888002078800707D5D5F824
:104140008800A16820F00C000843C5F8880020789A
:10415000400707D5D5F88800E16820F03000084313
:10416000C5F888002078000707D5D5F888002169B0
:1041700020F0C0000843C5F888002078800607D5E5
:10418000D5F88800616920F440600843C5F88800CC
:104190002078400607D5D5F88800A16920F4405062
:1041A0000843C5F888002078000607D5D5F88800B0
:1041B000E16920F440400843C5F888002088C00524
:1041C00007D5D5F88800216A20F440300843C5F8A7
:1041D00088002088800507D5D5F88800616A20F41A
:1041E00040200843C5F88800208840050FD5D5F841
:1041F0008800A16A20F440100843C5F88800A06A2E
:10420000B0F5801F03D1E86840F48010E860208892
:1042100000050FD5D5F88800E16A20F44000084376
:10422000C5F88800E06AB0F5800F03D1E86840F473
:104230008010E8602088C0040FD5D5F88800216B75
:1042400020F040700843C5F88800206BB0F1807FF3
:1042500003D1E86840F48010E86020884FF00061E6
:1042600080040ED5D5F88800626B20F040601043C2
:10427000C5F88800606B884203D1E86840F480107C
:10428000E860208840040ED5D5F88800A26B20F0A5
:1042900040601043C5F88800A06B884203D1E868ED
:1042A00040F48010E860208800040FD5D5F888001D
:1042B000E16B20F040500843C5F88800E06BB0F196
:1042C000805F03D1E86840F48030E8603046BDE8A4
:1042D000F883000000100240007000402DE9F04714
:1042E0000E4605004FF0000725D0DFF8AC81D8F866
:1042F000000000F00F00B0420CD2D8F8001021F0FE
:104300000F013143C8F80010D8F8000000F00F008A
:10431000B04210D12968614CC80741F2883A5AD09E
:104320006868DFF87C91032808D0022820682DD027
:10433000400500282CDB0120BDE8F08720688001C3
:10434000F9D5E06800F00302E068C0F30310401CF8
:10435000032A19D0534A00BFB2FBF0F0E268C2F35F
:1043600006225043E268C2F34162521C5200B0FB85
:10437000F2F0484517D9A06810F0F00F0CD088076C
:1043800011D5A86840B10EE0474AE5E78003D0E7C1
:1043900000F0B6F8484506D9A06820F0F00040F0DB
:1043A0008000A0608027A068696820F003000843AF
:1043B000A060FFF7F5FA814606E000BFFFF7F0FACC
:1043C000A0EB090151453AD8A068696800F00C00DB
:1043D000B0EB810FF2D12868810714D5400703D5CF
:1043E000A06840F4E060A0602878000705D5A068C8
:1043F00020F4605040F4E060A060A068A96820F05C
:10440000F000084304E0802F03D1A06820F0F00002
:10441000A060D8F80010404601F00F01B14216D953
:10442000016821F00F0131430160FFF7B9FA074637
:1044300007E000BFFFF7B4FAC11B514501D90320C3
:104440007AE7D8F8000000F00F00B042F2D12878E7
:10445000400705D5A068E96820F4E0600843A06043
:104460002878000706D5A068296920F4605040EA42
:10447000C100A06000F044F8A1680C4AC1F3031128
:10448000515C01F01F01C8400949086009480068F3
:10449000BDE8F047FFF7F8BC0020024000100240E2
:1044A00000B4C4040024F40000127A005CAF0008D9
:1044B00014000020080000200548064900688968AB
:1044C000054AC1F30221515C01F01F01C840704749
:1044D00014000020001002406CAF00080548064997
:1044E00000688968054AC1F3C221515C01F01F01CF
:1044F000C840704714000020001002406CAF000854
:10450000184910B58868C0F381021748012A0BD0FA
:104510008A684310C2F38102022A06D08A68C2F375
:104520008102032A03D0002010BD184610BDCA68BE
:1045300002F00304CA68C2F30312521C032C02D017
:10454000B0FBF2F001E0B3FBF2F0CA68C968C2F355
:1045500006225043C1F34161491C4900B0FBF1F010
:1045600010BD0000001002400024F4002DE9F843C3
:1045700004007AD02078F84DC00747D0A868E968D1
:1045800000F00C0001F003010C2802D0082817D01D
:1045900001E0032914D06068B0F5803F17D0B0F572
:1045A000A02F286817D020F480302860286820F4D5
:1045B000802028606068E0B1FFF7F2F9064614E059
:1045C0002868800322D560680028D2D01EE02868C1
:1045D00040F48030EDE740F480202860F7E700BF2A
:1045E000FFF7DEF9801B642870D828688003F7D5B0
:1045F0000CE0FFF7D5F9064605E000BFFFF7D0F95C
:10460000801B6428F0D828688003F7D420788007BE
:104610004CD5A868E96800F00C0001F003010C28F3
:1046200002D004280DD001E002290AD0E068002859
:1046300028682BD040F480702860FFF7B1F9064657
:1046400019E02868400502D5E068002891D0686824
:10465000217C20F0FE4040EA01606860BF480068AD
:10466000FFF712FC002800D120E072E1FFF798F973
:10467000801B0228B8D828684005F7D56868217CD7
:1046800020F0FE4040EA016068600FE020F4807096
:104690002860FFF785F9064605E000BFFFF780F9BF
:1046A000801B0228A0D828684005F7D4207800078E
:1046B00029D560690028D5F8940013D040F0010096
:1046C000C5F89400FFF76CF9064606E090E000BFDD
:1046D000FFF766F9801B022886D8D5F8940080077A
:1046E000F6D510E020F00100C5F89400FFF758F966
:1046F000064604E0FFF754F9801B022878D8D5F865
:1047000094008007F6D42078400761D5A86D002674
:10471000C00008D4A86D40F08050A865A86D01269F
:1047200000F0805000908E480168C90511D40168DE
:10473000804641F480710160FFF732F9074604E0DA
:10474000FFF72EF9C01B022852D8D8F80000C00588
:10475000F6D5A068012815D00528D5F8900016D008
:1047600020F00100C5F89000D5F8900020F004007A
:10477000C5F89000A06841F28838B8B1FFF710F989
:1047800007460EE0D5F8900040F00100F0E740F059
:104790000400C5F89000F5E7FFF702F9C11B414599
:1047A00026D8D5F890008007F6D50CE0FFF7F8F88A
:1047B000074604E0FFF7F4F8C11B414518D8D5F8C7
:1047C00090008007F6D41EB1A86D20F08050A86537
:1047D0002078800629D5A0690028D5F8980013D044
:1047E00040F00100C5F89800FFF7DAF8064606E049
:1047F00075E000BFFFF7D4F8801B02286FD8D5F80A
:1048000098008007F6D510E020F00100C5F8980068
:10481000FFF7C6F8064604E0FFF7C2F8801B02283F
:104820005DD8D5F898008007F6D4E069F0B3A968A0
:10483000C1F3810103295DD00228286820F080702F
:10484000286003D0FFF7ACF804464BE0FFF7A8F868
:10485000064604E0FFF7A4F8801B02283FD828682A
:104860008001F7D4F4E908016FF00F0202EB0111A7
:104870000843218A5204490802EB4151A26841EAE7
:1048800002210843217D4FF07E42490802EB41613D
:104890000843217B40EAC160E968324A114008437D
:1048A000E860286840F08070286000E05EE0E8681A
:1048B00040F08070E860FFF773F8044605E000BF41
:1048C000FFF76EF8001B022809D828688001F7D589
:1048D0004CE000BFFFF764F8001B022802D9032058
:1048E000BDE8F88328688001F4D4E8681E490840D0
:1048F000E8603BE00128F3D0E868226A00F0030199
:10490000914226D1616A00F0F0020901103991420A
:104910001FD1A26A00F4FE41B1EB022F19D194F825
:104920002C2000F07841B1EBC26F12D1218E00F43F
:10493000C00249084905A1F50011914209D194F836
:10494000341000F0C06049084906A1F100718142AD
:104950000CD00120C4E70000001002400800002035
:10496000007000400C809F01FCFFEEFE0020B7E7C6
:1049700070B504004FF0010040D094F8250028B92C
:10498000002084F82400204600F040F8022084F83B
:1049900025002068C168C943C90630D5CA214162D3
:1049A000216853204862204602F012F810BB2068AC
:1049B0008169154A11408161216888696268A3692B
:1049C000104322691A43104388612189E06840EA54
:1049D000014021680861204602F01FF850B9D4E96F
:1049E0000721114322686369956925F060452B43CF
:1049F000194391612268FF21516208B170BD002006
:104A0000012184F8251070BDBFFF8FFB10B592B057
:104A1000044644216846FBF7A0FF104920688842FD
:104A200019D14FF400200090801210906846FFF7D3
:104A300011FB08B1FEF700FE094850F8901F41F441
:104A4000004140F83819016841F480610160006854
:104A500000F48060119012B010BD000000280040EA
:104A60000010024070B5044690F824000B4601285F
:104A70001BD0012684F82460022084F82500B2B1FE
:104A80009878D97840EA014558781978000240EAC8
:104A9000413005432168CA2048622168532048629A
:104AA000204601F095FFD0B120E0022070BD58787B
:104AB000C10603D500F0EF000A305870D87801F035
:104AC0007BFF0504587801F077FF45EA00259878C8
:104AD00001F072FF0543187845EA4035DAE70848E7
:104AE000054020684560204601F097FF2268FF21BD
:104AF000516208B984F82560002184F8241070BD43
:104B00003FFFFF002DE9F041044690F82400904655
:104B10000D46012811D0012784F82470022084F862
:104B200025002168CA204862216853204862204637
:104B300001F04EFF002618B129E00220BDE8F08107
:104B40002068B8F1000F80694FEA406024D0002847
:104B500000DBEE70A8782978EA7840EA01406978AD
:104B6000090241EA82510843184908402168086057
:104B70002068816921F480218161D5E9030108431E
:104B800021688A6910438861204601F046FF226847
:104B9000FF215162A0B115E0002800DBEE702878FB
:104BA00001F00AFF0304687801F006FF43EA0023DE
:104BB000A87801F001FF0343E87843EA8050D3E787
:104BC00084F8257084F82460B8E700007F7F7F00B8
:104BD00070B504460B482168C860FEF7E1FE054643
:104BE0004FF47A7607E000BFFEF7DAFE401BB042D2
:104BF00001D9032070BD2068C0688006F4D500206C
:104C000070BD00005F00010070B5040009D0606A4B
:104C1000002540B125616561A56294F85D0040B151
:104C20000CE0012070BD6068B0F5827FF4D0E561D2
:104C3000F2E784F85C50204600F05CF8022084F82B
:104C40005D002068016821F040010160E1684FF4D7
:104C5000E062914201D9002001E04FF48050B1F5AB
:104C6000706F02D0914200D0A562A188228901F420
:104C7000827102F404421143227C02F002021143C9
:104C8000227D02F001021143228B02F400721143D3
:104C9000227F02F03802114394F8202002F08002B3
:104CA0001143228D02F40052114322681160A16960
:104CB000042202EA114194F8242000F4805002F00A
:104CC0001002114394F8342002F008021143A28923
:104CD00002F4706211430143206841602068C16999
:104CE00021F40061C1612566012084F85D00002087
:104CF00070BD000010B586B0044614216846FBF76D
:104D00002CFE1249206888421ED11148016E41F4E0
:104D100080510166016E01F480510591C16C41F032
:104D20000101C164C06C694600F001000590E020FB
:104D30000090022001900020029003900520049032
:104D40004FF09040FEF7FEFC06B010BD0030014071
:104D5000001002402DE9F84F984616468A46044650
:104D6000FEF71EFE814694F85D00012820D1BAF1BD
:104D7000000F6FD0002E6DD094F85C00012817D082
:104D8000012784F85C70032084F85D000025256607
:104D9000C4F838A0A687E6872564A4F84450A4F890
:104DA00046502565E564A068B0F5004F03D00CE0DF
:104DB0000220BDE8F88F2068016821F04001016001
:104DC0002068016841F4804101602068016849065B
:104DD00003D4016841F040010160E068B0F5E06F84
:104DE000606826D908B1012E1FD1A06B2168008808
:104DF000C86006E020688168890709D5A16B098829
:104E0000C160A06B801CA063E08F401EE0870CE0B7
:104E1000FEF7C6FDA0EB0901414503D3B8F1FF3F02
:104E200003D04BE0B8F1000F48D0E08F0028E1D16B
:104E300039E008B1012E33D1E08F0128A06B03D9EE
:104E400021680088C86010E021680078087314E0C9
:104E5000E08725E043E020688168890713D5E18F6A
:104E60000129A16B07D90988C160A06B801CA063D0
:104E7000E08F801EECE709780173A06B401CA063F3
:104E8000E08F401EE4E7FEF78BFDA0EB09014145F2
:104E900003D3B8F1FF3F03D010E0B8F1000F0DD0FD
:104EA000E08F0028D7D14A464146204601F0DDFD7B
:104EB00008B120202066A06830B109E084F85D7058
:104EC00084F85C50032074E72068C1688068009013
:104ED00084F85D7004F85C5F60680028F3D00120FE
:104EE00067E710B5401EB0F1807F01D3012010BDEF
:104EF0004FF0E02460610F21601703F0F3FA002007
:104F0000A06107202061002010BD000030B590F89E
:104F10003C20012A42D0012280F83C20CA688B68DC
:104F200022F440721A434B6822F480621A430B68E1
:104F300022F400621A430B6922F480521A434B692F
:104F400022F400521A430B6B22F480421A430B8B5B
:104F500022F4702242EA0342CB6922F080521A43C3
:104F60000F4D03680024AB4202D00E4DAB4210D16E
:104F70000D8D22F4700242EA05520D6A22F0807211
:104F80002A434D6A22F000722A43C96A22F0005275
:104F90000A435A6480F83C40002030BD022030BDF6
:104FA000002C014000340140F0B590F83C20012A6B
:104FB0003AD0012580F83C50022280F83D20036859
:104FC0005A689C68194E1A4FB34201D0BB4204D1B3
:104FD00022F4700C4A6842EA0C02DFF858C002EA78
:104FE0000C02D1F800C04CEA020CC3F804C00268FD
:104FF000B2420DD0B2F1804F0AD00F4B9A4207D087
:105000000E4B9A4204D0BA4202D00D4B9A4204D1C0
:10501000896824F080031943916080F83D50002195
:1050200080F83C100846F0BD0220F0BD002C014085
:10503000003401408FFFFFFD0004004000080040E5
:105040000040014010B5040003D094F83D0010B1B9
:1050500007E0012010BD002084F83C00204600F04D
:1050600023F8022084F83D00211D206802F040FA58
:10507000012084F8480084F83E0084F83F0084F85A
:10508000400084F8410084F8420084F8430084F82A
:10509000440084F8450084F8460084F8470084F80A
:1050A0003D00002010BD000008B500680649884298
:1050B00008D10648016E41F400610166006E00F4FB
:1050C0000060009008BD0000002C0140001002406C
:1050D00070B5044690F83C000025012814D0012644
:1050E00084F83C60022084F83D0022689068364BCA
:1050F000184020F47F409060086870282ED010DCA3
:1051000010F00F0F03D021E04FF0020070BD4FEA06
:105110002012072A1AD2DFE802F0525252524A38BD
:1051200040002A4BC21A984249D009DCB0F5805F92
:105130000DD0B0F5005F1CD0B0F1101F06D13EE0DD
:10514000102A3CD0202A3AD0502A38D0012584F8A1
:105150003D60002084F83C00284670BDCB68D1E952
:105160000121206802F022FA2068816841F077016D
:1051700009E0CB68D1E90121206802F017FA206824
:10518000816841F480418160E1E7CA68496820682C
:1051900002F0B6FB5021206806E0CA684968206822
:1051A00002F0BFFB6021206802F00AFACFE7CA686C
:1051B0004968206802F0A4FB40212068F4E72268D7
:1051C00001461046F0E7000088FFCEFF20001000E7
:1051D00010B586B0044614216846FBF7BEFB0D49A6
:1051E0002068884214D10C48C16C41F00401C164AC
:1051F000C06C002100F00400059001200090022006
:10520000CDE90101CDE9031069460448FEF79AFA99
:1052100006B010BD002C01400010024000080048FC
:1052200070B5044690F83C0000260D4601280BD0CE
:10523000012084F83C000C2A4AD007DC82B1042A01
:1052400020D0082A06D131E0022070BD102A53D0A8
:10525000142A63D00126002084F83C00304670BD3B
:10526000206802F0B7F92068816941F00801816186
:105270002068816921F004018161206881692A69BF
:10528000114311E0206802F0F3F92068816941F4CC
:10529000006181612068816921F4806181612068F9
:1052A00081692A6941EA02218161D4E7206802F01C
:1052B00027FA2068C16941F00801C1612068C1690D
:1052C00021F00401C1612068C1692A69114311E01C
:1052D000206802F05DFA2068C16941F40061C16193
:1052E0002068C16921F48061C1612068C1692A69AF
:1052F00041EA0221C161AEE7206802F091FA20681C
:10530000016D41F0080101652068016D21F0040183
:1053100001652068016D2A69114311E0206802F0DF
:10532000B7FA2068016D41F4006101652068016DE4
:1053300021F4806101652068016D2A6941EA02213A
:10534000016588E710B5040003D094F83D0010B162
:1053500007E0012010BD002084F83C00204600F04A
:1053600022F8022084F83D00211D206802F0C0F8D8
:10537000012084F8480084F83E0084F83F0084F857
:10538000400084F8410084F8420084F8430084F827
:10539000440084F8450084F8460084F8470084F807
:1053A0003D00002010BD704790F88410012918D0EE
:1053B000012180F884102421C0F8881001680A684F
:1053C0000B6823F001030B6022F0005100224266BB
:1053D000036819602021C0F8881080F884201046E6
:1053E0007047022070477047704770B5044690F8C8
:1053F000840001281DD0012084F884002420C4F8F2
:10540000880020680568026822F0010202602068B6
:10541000826822F060620A438260204602F094FAB9
:10542000206805602020C4F88800002084F88400EB
:1054300070BD022070BD70B5044690F8840001284C
:105440001DD0012084F884002420C4F8880020683E
:105450000568026822F0010202602068826822F07A
:1054600060420A438260204602F06EFA20680560BE
:105470002020C4F88800002084F8840070BD022039
:1054800070BD7047704770472DE9F04103680446CE
:10549000D86919689A6840F60F0528424FF0000550
:1054A0004FF002060AD187067ED501F0200702F0F0
:1054B000805C57EA0C0777D0616F42E1B64FDFF8A6
:1054C000DCC2174001EA0C0C57EA0C0C6CD05FEA06
:1054D000C07C0CD05FEAC15C09D54FF0010CC3F869
:1054E00020C0D4F8903043F00103C4F89030830713
:1054F00009D5D30707D023681E62D4F8903043F053
:105500000403C4F8903043070AD5D30708D02668AF
:1055100004233362D4F8903043F00203C4F890308F
:1055200003070CD501F020033B4308D0266808236D
:105530003362D4F8903043F00803C4F89030030588
:105540000BD54B0109D526684FF400633362D4F8BC
:10555000903043F02003C4F89030D4F89030002B02
:105560003DD0800609D501F0200002F080510843AB
:1055700003D0616F09B120468847D4F890002168B4
:105580008968490602D410F0280F2AD0204602F07C
:10559000BFFA2068806840061ED52068083050E8B1
:1055A000001F21F0400100E021E040E80012002A45
:1055B000F3D1D4F8800078B179498163D4F88000C0
:1055C000FEF771F800280AD0D4F88000816B00E063
:1055D0002046BDE8F04108472046FFF754FFBDE8EC
:1055E000F0812046FFF74FFFC4F89050F7E7D4F85A
:1055F0006CC02027BCF1010F7ED15FEAC06C7BD567
:105600005FEAC16C78D51020186220688068400677
:1056100051D5D4F880100A6850680004000C3ED0C0
:10562000B4F85C3083423AD9A4F85E000868006898
:1056300080062CD4216851E8000F20F4807041E8E6
:105640000002002AF6D12068083050E8001F21F03F
:10565000010140E80012002AF5D12068083050E826
:10566000001F21F0400140E80012002AF5D1C4F8E3
:105670008C70E566216851E8000F20F0100041E8C9
:105680000002002AF6D1D4F88000FDF7D7FF266784
:10569000B4F85C00B4F85E10401A81B207E0B4F8C8
:1056A0005C1081429BD11068800698D52667204601
:1056B000FFF799FE93E7B4F85C00B4F85E10401A67
:1056C00081B2B4F85E00002889D0002987D0226812
:1056D00052E8000F20F4907042E80003002BF6D14E
:1056E0002D4BDB432068083050E8002F1A4040E87B
:1056F000002CBCF1000F00E00EE0F3D1C4F88C7078
:10570000E5666567206850E8002F22F0100240E847
:105710000023002BF6D1C9E7C60209D5560207D5EA
:105720004FF4801018622046BDE8F041FFF7AABE92
:1057300003060AD501F0800302F40002134304D0EB
:10574000A16F00297FF444AF49E7420611D54A060C
:105750000FD52046016851E8002F22F0400241E8B1
:105760000023002BF6D1C0F88870856700F059F946
:1057700035E7020206D54A0004D52046BDE8F041CF
:10578000FFF77FBEC00195D5002993DA2046BDE81A
:10579000F041FFF729BE00000100001020010004C5
:1057A000017B000810B5040003D0D4F8880010B1C4
:1057B00007E0012010BD002084F88400204600F09E
:1057C00027F82420C4F888002068016821F001012E
:1057D0000160A06A10B1204602F0D8F8204602F01D
:1057E00029FC0128E6D02068416821F490414160FD
:1057F0002068816821F02A0181602068016841F0F9
:10580000010101602046BDE8104002F023B900000C
:105810002DE9F04198B00446142111A8FBF79DF83A
:1058200044216846FBF799F82F4920682F4C02263F
:105830000727DFF8BC800025884225D10120CDE96B
:1058400000056846FEF706FC08B1FDF7F5FE206E80
:1058500040F480402066206E00F480401690E06C9A
:1058600040F00200E064E06CCDE9126500F0020057
:105870001690C020CDE91457119011A94046FDF7AC
:1058800061FF18B0BDE8F0811A498842F9D10420BF
:10589000009003956846FEF7DDFB08B1FDF7CCFEEE
:1058A000A06D40F48020A065A06D00F480201690CB
:1058B000E06C40F00200E064E06CCDE9126500F0BD
:1058C000020016904FF44060CDE91457119011A9D1
:1058D0004046FDF737FF002205212720FEF722FB77
:1058E0002720FEF711FBCCE70038014000100240F2
:1058F000000400480048004030B4D0F88C30202B21
:1059000002D0022030BC7047A9B1A2B10023C36607
:105910000A4C0368A3420BD05B681B0208D50468DD
:1059200054E8003F43F0806344E80035002DF6D191
:1059300030BC02F0B9BC0120E4E700000080004068
:1059400010B50068084988420DD1FEF729F80749CB
:1059500048600878FDF7C8FDBDE810400122034902
:105960000348FFF7C9BF10BD0048004000000020F9
:105970000C0300202DE9F8430446D0F8880098462F
:1059800016460D46202802D00220BDE8F883A5B1B6
:105990009EB10020C4F890002120C4F8880018347B
:1059A000FDF7FEFFA6878146E68754F8100C2027F6
:1059B000183CB0F5805F02D003E00120E5E72069E4
:1059C00010B12E46002510E000260EE08021204672
:1059D00002F0F2FCC0B9DEB116F8010B2168886252
:1059E000B4F85600401EA4F85600B4F856004B46D2
:1059F0004FF00002CDF800800028E7D14FF04001C1
:105A0000204602F0D9FC40B1C4F888700320BCE7FE
:105A100035F8020BC0F30800E0E7C4F888700020F6
:105A2000B3E77047FEE701688A69D243920701D461
:105A300000228A6200688169C943C90703D081696D
:105A400041F00101816170472DE9F047044600688B
:105A500089460026816935461746C9064FF0200859
:105A600041D51021C1612FE0B9F1FF3F2CD0FDF7E6
:105A700097FFC11B494502D8B9F1000F24D1206816
:105A8000416894F8422001F480418369DB431B04A0
:105A900015D4B1F5804F12D0202A10D0416841F4BE
:105AA00080414160FDF77CFF074608E0FDF778FF85
:105AB000C01B192803D945F02005012604E0206801
:105AC0008069C0438006F1D420688069C0438006A5
:105AD00002D5002EC8D003E016B92168C1F81C8099
